S0220000456D62656464656453797374656D46696E616C50726F6A6563742E73726563B2
S11300000C9434000C9443020C9451000C94510051
S11300100C9451000C9451000C9451000C94510018
S11300200C9451000C9451000C9451000C949F02B8
S11300300C9451000C9451000C9451000C945100F8
S11300400C9451000C9451000C9451000C945100E8
S11300500C9451000C9451000C9451000C945100D8
S11300600C9451000C94510011241FBECFEFD8E022
S1130070DEBFCDBF11E0A0E0B1E0E0E8F8E002C0EF
S113008005900D92A033B107D9F721E0A0E3B1E0C8
S113009001C01D92AE33B207E1F70E946D030C94C8
S11300A03E040C94000010923B0110923A0110920D
S11300B036011092350110923901109238011092D4
S11300C0370110923C01089510928000109285002F
S11300D0109284002AEF829FC0011124909389001A
S11300E080938800E1E8F0E08081886080838081EB
S11300F083608083EFE6F0E08081826080830895EE
S1130100E1E8F0E080818E7F808380818D7F808331
S113011080818B7F808308950E9480000E94530019
S113012010923D0110923401109233011092320169
S1130130109231011092300108950E94530081E021
S113014080933D01089582E080933D0110923C012B
S113015081E08093340188E70E94640008959091BF
S11301603C01903208F07FC020913D01213009F01C
S11301707AC0882309F44CC0983070F421E030E050
S1130180092E02C0220F331F0A94E2F780913B012B
S1130190282B20933B013CC088EF890F883088F4DA
S11301A0492F50E04850510921E030E002C0220FAD
S11301B0331F4A95E2F780913A01282B20933A01A4
S11301C027C080EF890F883088F4492F50E04051D0
S11301D0510921E030E002C0220F331F4A95E2F7B3
S11301E080913901282B2093390112C0983180F075
S11301F0492F50E04851510921E030E002C0220F5C
S1130200331F4A95E2F780913801282B2093380157
S11302109F5F90933C01903231F520913901809198
S1130220380190E0820F911D8F3F9105D1F44091E8
S11302303B0180913A01282F30E0240F311D2F3FDC
S1130240310561F090E0982F8827842B9093360134
S11302508093350110923B0110923A010E94A30051
S113026008950E948C000895809134018130A1F496
S113027080913D01823011F081110EC080913701CF
S11302808F3F19F08F5F8093370182E080933D01A7
S113029088E70E94640008950E948C00089580916C
S11302A0320190913301892B09F4C2C0809130014D
S11302B090913101892B09F4BBC080913201909156
S11302C03301873D964008F447C0809132019091F4
S11302D033018E3B9A4008F03FC060913001709129
S11302E0310180E090E00E94AE0320E030E048E479
S11302F054E40E940F04181654F480913001909134
S113030031018C3D954018F40E949D0091C060918C
S113031030017091310180E090E00E94AE0320E052
S113032030E048EC53E40E940F0418160CF080C02F
S1130330609130017091310180E090E00E94AE0341
S113034020E030E048E454E40E94A90318160CF4B9
S11303506FC00E9434016CC060913201709133010E
S113036080E090E00E94AE0320E030E044EB52E4F1
S11303700E940F0418160CF059C06091320170915C
S1130380330180E090E00E94AE0320E030E04EE3D1
S113039053E40E94A90388230CF048C06091300103
S11303A07091310180E090E00E94AE0320E030E8DB
S11303B04BEB53E40E940F041816A4F4609130012F
S11303C07091310180E090E00E94AE0320E030E8BB
S11303D04DEE53E40E94A903882324F481E00E9493
S11303E0AF0026C0609130017091310180E090E04F
S11303F00E94AE0320E030E044EB52E40E940F047C
S11304001816B4F4609130017091310180E090E0ED
S11304100E94AE0320E030E04EE353E40E94A903BF
S1130420882334F480E00E94AF0002C00E948C0054
S11304301092330110923201109231011092300166
S1130440089520913D012230E1F42091350130914D
S113045036012115310521F0FC013183208306C0CA
S113046020913B0130E0FC0131832083209139014C
S1130470FC01228320913701238310923D0181E006
S1130480089580E008951F920F920FB60F921124E1
S11304902F933F934F935F936F937F938F939F9388
S11304A0AF93BF93EF93FF9380913D018230B1F1FD
S11304B04A9924C02091320130913301232B51F405
S11304C0813021F480E10E94640028C080E10E9410
S11304D0640024C0809184009091850020913201B1
S11304E030913301821B930B90933101809330013F
S11304F080E10E9464000E944F0110C0809184003A
S11305009091850090933301809332018091320160
S113051090913301892B11F40E948C00FF91EF918B
S1130520BF91AF919F918F917F916F915F914F9107
S11305303F912F910F900FBE0F901F9018951F920F
S11305400F920FB60F9211242F933F934F935F9303
S11305506F937F938F939F93AF93BF93EF93FF9387
S11305600E94800080913D01823019F41092340180
S113057002C00E948C00FF91EF91BF91AF919F91B7
S11305808F917F916F915F914F913F912F910F9038
S11305900FBE0F901F901895CF93CFB7F8948AB1E0
S11305A08B7F8AB98BB184608BB9E9E6F0E08081F6
S11305B0816080838DB381608DBB0E948C00CFBF2E
S11305C0CF9108951092C50087E68093C400E2ECB1
S11305D0F0E0808186608083E1ECF0E080818861D6
S11305E080830895DC0120E030E00CC09091C000CD
S11305F095FFFCCFFD01E40FF51F80818093C600B9
S11306002F5F3F4FFD0101900020E9F73197EA1B6E
S1130610FB0B3197A901E217F30740F70895E0E8CF
S1130620F0E0808182688083E1E8F0E080818A6183
S113063080838FE39CE990938700809386000895DC
S11306408534910579F03CF480349105D1F08334FC
S1130650910569F108958634910549F0873491052F
S113066059F0089580E091E00E94F202089589E033
S113067091E00E94F202089585E191E00E94F20265
S113068008950E940F038FEA94E090938900809369
S113069088008BE191E00E94F2022FEF83ED90E35A
S11306A0215080409040E1F700C0000008950E946E
S11306B00F0380E291E00E94F2028FEB92E19093AB
S11306C08900809388002FEF83ED90E321508040D0
S11306D09040E1F700C000000895CF93DF93CDB7B9
S11306E0DEB72E970FB6F894DEBF0FBECDBF84B130
S11306F0826084B98AB18AB98BB180618BB90E9456
S1130700E20278940E94CC0286E291E00E94F20216
S1130710F894CE010B960E94210278948823C1F3A9
S11307208E85882321F0C8010E942003F1CF8DE239
S113073091E00E94F2028D8540E1BE016F5F7F4F20
S113074090E00E9414040D8510E0C8010E9420036B
S1130750DFCF0E94EB0308F481E00895E89409C018
S113076097FB3EF490958095709561957F4F8F4FE0
S11307709F4F9923A9F0F92F96E9BB279395F695F6
S1130780879577956795B795F111F8CFFAF4BB0F74
S113079011F460FF1BC06F5F7F4F8F4F9F4F16C0D8
S11307A0882311F096E911C0772321F09EE8872F62
S11307B0762F05C0662371F096E8862F70E060E01E
S11307C02AF09A95660F771F881FDAF7880F969597
S11307D0879597F90895990F0008550FAA0BE0E83B
S11307E0FEEF16161706E807F907C0F012161306EF
S11307F0E407F50798F0621B730B840B950B39F42F
S11308000A2661F0232B242B252B21F408950A2694
S113081009F4A140A6958FEF811D811D08950E94C2
S1130820EB0308F48FEF0895BB27FB015527AA2794
S1130830880F991FAA1FA41710F0A41B8395505169
S1130840B9F7A05DAA3308F0A95DA193009779F7E1
S1130850B111B1931192CB010C942E04DC01FC0173
S1130860672F71917723E1F7329704C07C916D93E0
S113087070836291AE17BF07C8F30895F894FFCF51
S1130880504F574552204F4E005357495443482028
S11308904D4F44450053484F4F54004C4546540077
S11308A052494748540053544152540A000A0D0017
S9030000FC
